{
	"data": {
		"bytecode": {
			"linkReferences": {},
			"object": "60806040526001600055600260015534801561001a57600080fd5b506101a38061002a6000396000f3fe608060405234801561001057600080fd5b506004361061002b5760003560e01c80632f6ee7fa14610030575b600080fd5b61003861004e565b604051610045919061007b565b60405180910390f35b60006001546000546100609190610096565b6002819055505a905090565b61007581610134565b82525050565b6000602082019050610090600083018461006c565b92915050565b60006100a18261012a565b91506100ac8361012a565b9250817f7fffffffffffffffffffffffffffffffffffffffffffffffffffffffffffffff038313600083121516156100e7576100e661013e565b5b817f800000000000000000000000000000000000000000000000000000000000000003831260008312161561011f5761011e61013e565b5b828201905092915050565b6000819050919050565b6000819050919050565b7f4e487b7100000000000000000000000000000000000000000000000000000000600052601160045260246000fdfea2646970667358221220030afc4e4e96b2bb0ef90e89affaafa217a69bdffce08616418600daf89aaea264736f6c63430008070033",
			"opcodes": "PUSH1 0x80 PUSH1 0x40 MSTORE PUSH1 0x1 PUSH1 0x0 SSTORE PUSH1 0x2 PUSH1 0x1 SSTORE CALLVALUE DUP1 ISZERO PUSH2 0x1A JUMPI PUSH1 0x0 DUP1 REVERT JUMPDEST POP PUSH2 0x1A3 DUP1 PUSH2 0x2A PUSH1 0x0 CODECOPY PUSH1 0x0 RETURN INVALID PUSH1 0x80 PUSH1 0x40 MSTORE CALLVALUE DUP1 ISZERO PUSH2 0x10 JUMPI PUSH1 0x0 DUP1 REVERT JUMPDEST POP PUSH1 0x4 CALLDATASIZE LT PUSH2 0x2B JUMPI PUSH1 0x0 CALLDATALOAD PUSH1 0xE0 SHR DUP1 PUSH4 0x2F6EE7FA EQ PUSH2 0x30 JUMPI JUMPDEST PUSH1 0x0 DUP1 REVERT JUMPDEST PUSH2 0x38 PUSH2 0x4E JUMP JUMPDEST PUSH1 0x40 MLOAD PUSH2 0x45 SWAP2 SWAP1 PUSH2 0x7B JUMP JUMPDEST PUSH1 0x40 MLOAD DUP1 SWAP2 SUB SWAP1 RETURN JUMPDEST PUSH1 0x0 PUSH1 0x1 SLOAD PUSH1 0x0 SLOAD PUSH2 0x60 SWAP2 SWAP1 PUSH2 0x96 JUMP JUMPDEST PUSH1 0x2 DUP2 SWAP1 SSTORE POP GAS SWAP1 POP SWAP1 JUMP JUMPDEST PUSH2 0x75 DUP2 PUSH2 0x134 JUMP JUMPDEST DUP3 MSTORE POP POP JUMP JUMPDEST PUSH1 0x0 PUSH1 0x20 DUP3 ADD SWAP1 POP PUSH2 0x90 PUSH1 0x0 DUP4 ADD DUP5 PUSH2 0x6C JUMP JUMPDEST SWAP3 SWAP2 POP POP JUMP JUMPDEST PUSH1 0x0 PUSH2 0xA1 DUP3 PUSH2 0x12A JUMP JUMPDEST SWAP2 POP PUSH2 0xAC DUP4 PUSH2 0x12A JUMP JUMPDEST SWAP3 POP DUP2 PUSH32 0x7FFFFFFFFFFFFFFFFFFFFFFFFFFFFFFFFFFFFFFFFFFFFFFFFFFFFFFFFFFFFFFF SUB DUP4 SGT PUSH1 0x0 DUP4 SLT ISZERO AND ISZERO PUSH2 0xE7 JUMPI PUSH2 0xE6 PUSH2 0x13E JUMP JUMPDEST JUMPDEST DUP2 PUSH32 0x8000000000000000000000000000000000000000000000000000000000000000 SUB DUP4 SLT PUSH1 0x0 DUP4 SLT AND ISZERO PUSH2 0x11F JUMPI PUSH2 0x11E PUSH2 0x13E JUMP JUMPDEST JUMPDEST DUP3 DUP3 ADD SWAP1 POP SWAP3 SWAP2 POP POP JUMP JUMPDEST PUSH1 0x0 DUP2 SWAP1 POP SWAP2 SWAP1 POP JUMP JUMPDEST PUSH1 0x0 DUP2 SWAP1 POP SWAP2 SWAP1 POP JUMP JUMPDEST PUSH32 0x4E487B7100000000000000000000000000000000000000000000000000000000 PUSH1 0x0 MSTORE PUSH1 0x11 PUSH1 0x4 MSTORE PUSH1 0x24 PUSH1 0x0 REVERT INVALID LOG2 PUSH5 0x6970667358 0x22 SLT KECCAK256 SUB EXP 0xFC 0x4E 0x4E SWAP7 0xB2 0xBB 0xE 0xF9 0xE DUP10 0xAF STATICCALL 0xAF LOG2 OR 0xA6 SWAP12 0xDF 0xFC 0xE0 DUP7 AND COINBASE DUP7 STOP 0xDA 0xF8 SWAP11 0xAE LOG2 PUSH5 0x736F6C6343 STOP ADDMOD SMOD STOP CALLER "
		},
		"gasEstimates": {
			"creation": {
				"codeDepositCost": "83800",
				"executionCost": "44347",
				"totalCost": "128147"
			},
			"external": {
				"addVals()": "infinite"
			}
		},
		"methodIdentifiers": {
			"addVals()": "2f6ee7fa"
		}
	},
	"abi": [
		{
			"inputs": [],
			"name": "addVals",
			"outputs": [
				{
					"internalType": "uint256",
					"name": "",
					"type": "uint256"
				}
			],
			"stateMutability": "nonpayable",
			"type": "function"
		}
	]
}