{
	"data": {
		"bytecode": {
			"linkReferences": {},
			"object": "6080604052600060025560006003556000600460006101000a81548160ff0219169083151502179055506040518060400160405280600481526020017f746573740000000000000000000000000000000000000000000000000000000081525060059080519060200190610074929190610100565b50737e8018754d7b325cca0f6000dea55568bc4c9f43600660006101000a81548173ffffffffffffffffffffffffffffffffffffffff021916908373ffffffffffffffffffffffffffffffffffffffff1602179055507f43617400000000000000000000000000000000000000000000000000000000006007553480156100fa57600080fd5b50610204565b82805461010c906101a3565b90600052602060002090601f01602090048101928261012e5760008555610175565b82601f1061014757805160ff1916838001178555610175565b82800160010185558215610175579182015b82811115610174578251825591602001919060010190610159565b5b5090506101829190610186565b5090565b5b8082111561019f576000816000905550600101610187565b5090565b600060028204905060018216806101bb57607f821691505b602082108114156101cf576101ce6101d5565b5b50919050565b7f4e487b7100000000000000000000000000000000000000000000000000000000600052602260045260246000fd5b6106fc806102136000396000f3fe608060405234801561001057600080fd5b50600436106100575760003560e01c80632e64cec11461005c57806343ec8f471461007a5780636057361d146100aa5780639e7a13ad146100c6578063bc832d4e146100f7575b600080fd5b610064610113565b60405161007191906104c0565b60405180910390f35b610094600480360381019061008f91906103a6565b61011d565b6040516100a191906104c0565b60405180910390f35b6100c460048036038101906100bf91906103ef565b61014b565b005b6100e060048036038101906100db91906103ef565b610155565b6040516100ee9291906104db565b60405180910390f35b610111600480360381019061010c919061041c565b610211565b005b6000600254905090565b6001818051602081018201805184825260208301602085012081835280955050505050506000915090505481565b8060028190555050565b6000818154811061016557600080fd5b906000526020600020906002020160009150905080600001549080600101805461018e906105c9565b80601f01602080910402602001604051908101604052809291908181526020018280546101ba906105c9565b80156102075780601f106101dc57610100808354040283529160200191610207565b820191906000526020600020905b8154815290600101906020018083116101ea57829003601f168201915b5050505050905082565b6000604051806040016040528084815260200183815250908060018154018082558091505060019003906000526020600020906002020160009091909190915060008201518160000155602082015181600101908051906020019061027792919061027e565b5050505050565b82805461028a906105c9565b90600052602060002090601f0160209004810192826102ac57600085556102f3565b82601f106102c557805160ff19168380011785556102f3565b828001600101855582156102f3579182015b828111156102f25782518255916020019190600101906102d7565b5b5090506103009190610304565b5090565b5b8082111561031d576000816000905550600101610305565b5090565b600061033461032f84610530565b61050b565b9050828152602081018484840111156103505761034f61068f565b5b61035b848285610587565b509392505050565b600082601f8301126103785761037761068a565b5b8135610388848260208601610321565b91505092915050565b6000813590506103a0816106af565b92915050565b6000602082840312156103bc576103bb610699565b5b600082013567ffffffffffffffff8111156103da576103d9610694565b5b6103e684828501610363565b91505092915050565b60006020828403121561040557610404610699565b5b600061041384828501610391565b91505092915050565b6000806040838503121561043357610432610699565b5b600061044185828601610391565b925050602083013567ffffffffffffffff81111561046257610461610694565b5b61046e85828601610363565b9150509250929050565b600061048382610561565b61048d818561056c565b935061049d818560208601610596565b6104a68161069e565b840191505092915050565b6104ba8161057d565b82525050565b60006020820190506104d560008301846104b1565b92915050565b60006040820190506104f060008301856104b1565b81810360208301526105028184610478565b90509392505050565b6000610515610526565b905061052182826105fb565b919050565b6000604051905090565b600067ffffffffffffffff82111561054b5761054a61065b565b5b6105548261069e565b9050602081019050919050565b600081519050919050565b600082825260208201905092915050565b6000819050919050565b82818337600083830152505050565b60005b838110156105b4578082015181840152602081019050610599565b838111156105c3576000848401525b50505050565b600060028204905060018216806105e157607f821691505b602082108114156105f5576105f461062c565b5b50919050565b6106048261069e565b810181811067ffffffffffffffff821117156106235761062261065b565b5b80604052505050565b7f4e487b7100000000000000000000000000000000000000000000000000000000600052602260045260246000fd5b7f4e487b7100000000000000000000000000000000000000000000000000000000600052604160045260246000fd5b600080fd5b600080fd5b600080fd5b600080fd5b6000601f19601f8301169050919050565b6106b88161057d565b81146106c357600080fd5b5056fea2646970667358221220869fea63ad0ab73a9cee8a96a2c831b73b835abae28485e27763e4b41dd5f94d64736f6c63430008070033",
			"opcodes": "PUSH1 0x80 PUSH1 0x40 MSTORE PUSH1 0x0 PUSH1 0x2 SSTORE PUSH1 0x0 PUSH1 0x3 SSTORE PUSH1 0x0 PUSH1 0x4 PUSH1 0x0 PUSH2 0x100 EXP DUP2 SLOAD DUP2 PUSH1 0xFF MUL NOT AND SWAP1 DUP4 ISZERO ISZERO MUL OR SWAP1 SSTORE POP PUSH1 0x40 MLOAD DUP1 PUSH1 0x40 ADD PUSH1 0x40 MSTORE DUP1 PUSH1 0x4 DUP2 MSTORE PUSH1 0x20 ADD PUSH32 0x7465737400000000000000000000000000000000000000000000000000000000 DUP2 MSTORE POP PUSH1 0x5 SWAP1 DUP1 MLOAD SWAP1 PUSH1 0x20 ADD SWAP1 PUSH2 0x74 SWAP3 SWAP2 SWAP1 PUSH2 0x100 JUMP JUMPDEST POP PUSH20 0x7E8018754D7B325CCA0F6000DEA55568BC4C9F43 PUSH1 0x6 PUSH1 0x0 PUSH2 0x100 EXP DUP2 SLOAD DUP2 PUSH20 0xFFFFFFFFFFFFFFFFFFFFFFFFFFFFFFFFFFFFFFFF MUL NOT AND SWAP1 DUP4 PUSH20 0xFFFFFFFFFFFFFFFFFFFFFFFFFFFFFFFFFFFFFFFF AND MUL OR SWAP1 SSTORE POP PUSH32 0x4361740000000000000000000000000000000000000000000000000000000000 PUSH1 0x7 SSTORE CALLVALUE DUP1 ISZERO PUSH2 0xFA JUMPI PUSH1 0x0 DUP1 REVERT JUMPDEST POP PUSH2 0x204 JUMP JUMPDEST DUP3 DUP1 SLOAD PUSH2 0x10C SWAP1 PUSH2 0x1A3 JUMP JUMPDEST SWAP1 PUSH1 0x0 MSTORE PUSH1 0x20 PUSH1 0x0 KECCAK256 SWAP1 PUSH1 0x1F ADD PUSH1 0x20 SWAP1 DIV DUP2 ADD SWAP3 DUP3 PUSH2 0x12E JUMPI PUSH1 0x0 DUP6 SSTORE PUSH2 0x175 JUMP JUMPDEST DUP3 PUSH1 0x1F LT PUSH2 0x147 JUMPI DUP1 MLOAD PUSH1 0xFF NOT AND DUP4 DUP1 ADD OR DUP6 SSTORE PUSH2 0x175 JUMP JUMPDEST DUP3 DUP1 ADD PUSH1 0x1 ADD DUP6 SSTORE DUP3 ISZERO PUSH2 0x175 JUMPI SWAP2 DUP3 ADD JUMPDEST DUP3 DUP2 GT ISZERO PUSH2 0x174 JUMPI DUP3 MLOAD DUP3 SSTORE SWAP2 PUSH1 0x20 ADD SWAP2 SWAP1 PUSH1 0x1 ADD SWAP1 PUSH2 0x159 JUMP JUMPDEST JUMPDEST POP SWAP1 POP PUSH2 0x182 SWAP2 SWAP1 PUSH2 0x186 JUMP JUMPDEST POP SWAP1 JUMP JUMPDEST JUMPDEST DUP1 DUP3 GT ISZERO PUSH2 0x19F JUMPI PUSH1 0x0 DUP2 PUSH1 0x0 SWAP1 SSTORE POP PUSH1 0x1 ADD PUSH2 0x187 JUMP JUMPDEST POP SWAP1 JUMP JUMPDEST PUSH1 0x0 PUSH1 0x2 DUP3 DIV SWAP1 POP PUSH1 0x1 DUP3 AND DUP1 PUSH2 0x1BB JUMPI PUSH1 0x7F DUP3 AND SWAP2 POP JUMPDEST PUSH1 0x20 DUP3 LT DUP2 EQ ISZERO PUSH2 0x1CF JUMPI PUSH2 0x1CE PUSH2 0x1D5 JUMP JUMPDEST JUMPDEST POP SWAP2 SWAP1 POP JUMP JUMPDEST PUSH32 0x4E487B7100000000000000000000000000000000000000000000000000000000 PUSH1 0x0 MSTORE PUSH1 0x22 PUSH1 0x4 MSTORE PUSH1 0x24 PUSH1 0x0 REVERT JUMPDEST PUSH2 0x6FC DUP1 PUSH2 0x213 PUSH1 0x0 CODECOPY PUSH1 0x0 RETURN INVALID PUSH1 0x80 PUSH1 0x40 MSTORE CALLVALUE DUP1 ISZERO PUSH2 0x10 JUMPI PUSH1 0x0 DUP1 REVERT JUMPDEST POP PUSH1 0x4 CALLDATASIZE LT PUSH2 0x57 JUMPI PUSH1 0x0 CALLDATALOAD PUSH1 0xE0 SHR DUP1 PUSH4 0x2E64CEC1 EQ PUSH2 0x5C JUMPI DUP1 PUSH4 0x43EC8F47 EQ PUSH2 0x7A JUMPI DUP1 PUSH4 0x6057361D EQ PUSH2 0xAA JUMPI DUP1 PUSH4 0x9E7A13AD EQ PUSH2 0xC6 JUMPI DUP1 PUSH4 0xBC832D4E EQ PUSH2 0xF7 JUMPI JUMPDEST PUSH1 0x0 DUP1 REVERT JUMPDEST PUSH2 0x64 PUSH2 0x113 JUMP JUMPDEST PUSH1 0x40 MLOAD PUSH2 0x71 SWAP2 SWAP1 PUSH2 0x4C0 JUMP JUMPDEST PUSH1 0x40 MLOAD DUP1 SWAP2 SUB SWAP1 RETURN JUMPDEST PUSH2 0x94 PUSH1 0x4 DUP1 CALLDATASIZE SUB DUP2 ADD SWAP1 PUSH2 0x8F SWAP2 SWAP1 PUSH2 0x3A6 JUMP JUMPDEST PUSH2 0x11D JUMP JUMPDEST PUSH1 0x40 MLOAD PUSH2 0xA1 SWAP2 SWAP1 PUSH2 0x4C0 JUMP JUMPDEST PUSH1 0x40 MLOAD DUP1 SWAP2 SUB SWAP1 RETURN JUMPDEST PUSH2 0xC4 PUSH1 0x4 DUP1 CALLDATASIZE SUB DUP2 ADD SWAP1 PUSH2 0xBF SWAP2 SWAP1 PUSH2 0x3EF JUMP JUMPDEST PUSH2 0x14B JUMP JUMPDEST STOP JUMPDEST PUSH2 0xE0 PUSH1 0x4 DUP1 CALLDATASIZE SUB DUP2 ADD SWAP1 PUSH2 0xDB SWAP2 SWAP1 PUSH2 0x3EF JUMP JUMPDEST PUSH2 0x155 JUMP JUMPDEST PUSH1 0x40 MLOAD PUSH2 0xEE SWAP3 SWAP2 SWAP1 PUSH2 0x4DB JUMP JUMPDEST PUSH1 0x40 MLOAD DUP1 SWAP2 SUB SWAP1 RETURN JUMPDEST PUSH2 0x111 PUSH1 0x4 DUP1 CALLDATASIZE SUB DUP2 ADD SWAP1 PUSH2 0x10C SWAP2 SWAP1 PUSH2 0x41C JUMP JUMPDEST PUSH2 0x211 JUMP JUMPDEST STOP JUMPDEST PUSH1 0x0 PUSH1 0x2 SLOAD SWAP1 POP SWAP1 JUMP JUMPDEST PUSH1 0x1 DUP2 DUP1 MLOAD PUSH1 0x20 DUP2 ADD DUP3 ADD DUP1 MLOAD DUP5 DUP3 MSTORE PUSH1 0x20 DUP4 ADD PUSH1 0x20 DUP6 ADD KECCAK256 DUP2 DUP4 MSTORE DUP1 SWAP6 POP POP POP POP POP POP PUSH1 0x0 SWAP2 POP SWAP1 POP SLOAD DUP2 JUMP JUMPDEST DUP1 PUSH1 0x2 DUP2 SWAP1 SSTORE POP POP JUMP JUMPDEST PUSH1 0x0 DUP2 DUP2 SLOAD DUP2 LT PUSH2 0x165 JUMPI PUSH1 0x0 DUP1 REVERT JUMPDEST SWAP1 PUSH1 0x0 MSTORE PUSH1 0x20 PUSH1 0x0 KECCAK256 SWAP1 PUSH1 0x2 MUL ADD PUSH1 0x0 SWAP2 POP SWAP1 POP DUP1 PUSH1 0x0 ADD SLOAD SWAP1 DUP1 PUSH1 0x1 ADD DUP1 SLOAD PUSH2 0x18E SWAP1 PUSH2 0x5C9 JUMP JUMPDEST DUP1 PUSH1 0x1F ADD PUSH1 0x20 DUP1 SWAP2 DIV MUL PUSH1 0x20 ADD PUSH1 0x40 MLOAD SWAP1 DUP2 ADD PUSH1 0x40 MSTORE DUP1 SWAP3 SWAP2 SWAP1 DUP2 DUP2 MSTORE PUSH1 0x20 ADD DUP3 DUP1 SLOAD PUSH2 0x1BA SWAP1 PUSH2 0x5C9 JUMP JUMPDEST DUP1 ISZERO PUSH2 0x207 JUMPI DUP1 PUSH1 0x1F LT PUSH2 0x1DC JUMPI PUSH2 0x100 DUP1 DUP4 SLOAD DIV MUL DUP4 MSTORE SWAP2 PUSH1 0x20 ADD SWAP2 PUSH2 0x207 JUMP JUMPDEST DUP3 ADD SWAP2 SWAP1 PUSH1 0x0 MSTORE PUSH1 0x20 PUSH1 0x0 KECCAK256 SWAP1 JUMPDEST DUP2 SLOAD DUP2 MSTORE SWAP1 PUSH1 0x1 ADD SWAP1 PUSH1 0x20 ADD DUP1 DUP4 GT PUSH2 0x1EA JUMPI DUP3 SWAP1 SUB PUSH1 0x1F AND DUP3 ADD SWAP2 JUMPDEST POP POP POP POP POP SWAP1 POP DUP3 JUMP JUMPDEST PUSH1 0x0 PUSH1 0x40 MLOAD DUP1 PUSH1 0x40 ADD PUSH1 0x40 MSTORE DUP1 DUP5 DUP2 MSTORE PUSH1 0x20 ADD DUP4 DUP2 MSTORE POP SWAP1 DUP1 PUSH1 0x1 DUP2 SLOAD ADD DUP1 DUP3 SSTORE DUP1 SWAP2 POP POP PUSH1 0x1 SWAP1 SUB SWAP1 PUSH1 0x0 MSTORE PUSH1 0x20 PUSH1 0x0 KECCAK256 SWAP1 PUSH1 0x2 MUL ADD PUSH1 0x0 SWAP1 SWAP2 SWAP1 SWAP2 SWAP1 SWAP2 POP PUSH1 0x0 DUP3 ADD MLOAD DUP2 PUSH1 0x0 ADD SSTORE PUSH1 0x20 DUP3 ADD MLOAD DUP2 PUSH1 0x1 ADD SWAP1 DUP1 MLOAD SWAP1 PUSH1 0x20 ADD SWAP1 PUSH2 0x277 SWAP3 SWAP2 SWAP1 PUSH2 0x27E JUMP JUMPDEST POP POP POP POP POP JUMP JUMPDEST DUP3 DUP1 SLOAD PUSH2 0x28A SWAP1 PUSH2 0x5C9 JUMP JUMPDEST SWAP1 PUSH1 0x0 MSTORE PUSH1 0x20 PUSH1 0x0 KECCAK256 SWAP1 PUSH1 0x1F ADD PUSH1 0x20 SWAP1 DIV DUP2 ADD SWAP3 DUP3 PUSH2 0x2AC JUMPI PUSH1 0x0 DUP6 SSTORE PUSH2 0x2F3 JUMP JUMPDEST DUP3 PUSH1 0x1F LT PUSH2 0x2C5 JUMPI DUP1 MLOAD PUSH1 0xFF NOT AND DUP4 DUP1 ADD OR DUP6 SSTORE PUSH2 0x2F3 JUMP JUMPDEST DUP3 DUP1 ADD PUSH1 0x1 ADD DUP6 SSTORE DUP3 ISZERO PUSH2 0x2F3 JUMPI SWAP2 DUP3 ADD JUMPDEST DUP3 DUP2 GT ISZERO PUSH2 0x2F2 JUMPI DUP3 MLOAD DUP3 SSTORE SWAP2 PUSH1 0x20 ADD SWAP2 SWAP1 PUSH1 0x1 ADD SWAP1 PUSH2 0x2D7 JUMP JUMPDEST JUMPDEST POP SWAP1 POP PUSH2 0x300 SWAP2 SWAP1 PUSH2 0x304 JUMP JUMPDEST POP SWAP1 JUMP JUMPDEST JUMPDEST DUP1 DUP3 GT ISZERO PUSH2 0x31D JUMPI PUSH1 0x0 DUP2 PUSH1 0x0 SWAP1 SSTORE POP PUSH1 0x1 ADD PUSH2 0x305 JUMP JUMPDEST POP SWAP1 JUMP JUMPDEST PUSH1 0x0 PUSH2 0x334 PUSH2 0x32F DUP5 PUSH2 0x530 JUMP JUMPDEST PUSH2 0x50B JUMP JUMPDEST SWAP1 POP DUP3 DUP2 MSTORE PUSH1 0x20 DUP2 ADD DUP5 DUP5 DUP5 ADD GT ISZERO PUSH2 0x350 JUMPI PUSH2 0x34F PUSH2 0x68F JUMP JUMPDEST JUMPDEST PUSH2 0x35B DUP5 DUP3 DUP6 PUSH2 0x587 JUMP JUMPDEST POP SWAP4 SWAP3 POP POP POP JUMP JUMPDEST PUSH1 0x0 DUP3 PUSH1 0x1F DUP4 ADD SLT PUSH2 0x378 JUMPI PUSH2 0x377 PUSH2 0x68A JUMP JUMPDEST JUMPDEST DUP2 CALLDATALOAD PUSH2 0x388 DUP5 DUP3 PUSH1 0x20 DUP7 ADD PUSH2 0x321 JUMP JUMPDEST SWAP2 POP POP SWAP3 SWAP2 POP POP JUMP JUMPDEST PUSH1 0x0 DUP2 CALLDATALOAD SWAP1 POP PUSH2 0x3A0 DUP2 PUSH2 0x6AF JUMP JUMPDEST SWAP3 SWAP2 POP POP JUMP JUMPDEST PUSH1 0x0 PUSH1 0x20 DUP3 DUP5 SUB SLT ISZERO PUSH2 0x3BC JUMPI PUSH2 0x3BB PUSH2 0x699 JUMP JUMPDEST JUMPDEST PUSH1 0x0 DUP3 ADD CALLDATALOAD PUSH8 0xFFFFFFFFFFFFFFFF DUP2 GT ISZERO PUSH2 0x3DA JUMPI PUSH2 0x3D9 PUSH2 0x694 JUMP JUMPDEST JUMPDEST PUSH2 0x3E6 DUP5 DUP3 DUP6 ADD PUSH2 0x363 JUMP JUMPDEST SWAP2 POP POP SWAP3 SWAP2 POP POP JUMP JUMPDEST PUSH1 0x0 PUSH1 0x20 DUP3 DUP5 SUB SLT ISZERO PUSH2 0x405 JUMPI PUSH2 0x404 PUSH2 0x699 JUMP JUMPDEST JUMPDEST PUSH1 0x0 PUSH2 0x413 DUP5 DUP3 DUP6 ADD PUSH2 0x391 JUMP JUMPDEST SWAP2 POP POP SWAP3 SWAP2 POP POP JUMP JUMPDEST PUSH1 0x0 DUP1 PUSH1 0x40 DUP4 DUP6 SUB SLT ISZERO PUSH2 0x433 JUMPI PUSH2 0x432 PUSH2 0x699 JUMP JUMPDEST JUMPDEST PUSH1 0x0 PUSH2 0x441 DUP6 DUP3 DUP7 ADD PUSH2 0x391 JUMP JUMPDEST SWAP3 POP POP PUSH1 0x20 DUP4 ADD CALLDATALOAD PUSH8 0xFFFFFFFFFFFFFFFF DUP2 GT ISZERO PUSH2 0x462 JUMPI PUSH2 0x461 PUSH2 0x694 JUMP JUMPDEST JUMPDEST PUSH2 0x46E DUP6 DUP3 DUP7 ADD PUSH2 0x363 JUMP JUMPDEST SWAP2 POP POP SWAP3 POP SWAP3 SWAP1 POP JUMP JUMPDEST PUSH1 0x0 PUSH2 0x483 DUP3 PUSH2 0x561 JUMP JUMPDEST PUSH2 0x48D DUP2 DUP6 PUSH2 0x56C JUMP JUMPDEST SWAP4 POP PUSH2 0x49D DUP2 DUP6 PUSH1 0x20 DUP7 ADD PUSH2 0x596 JUMP JUMPDEST PUSH2 0x4A6 DUP2 PUSH2 0x69E JUMP JUMPDEST DUP5 ADD SWAP2 POP POP SWAP3 SWAP2 POP POP JUMP JUMPDEST PUSH2 0x4BA DUP2 PUSH2 0x57D JUMP JUMPDEST DUP3 MSTORE POP POP JUMP JUMPDEST PUSH1 0x0 PUSH1 0x20 DUP3 ADD SWAP1 POP PUSH2 0x4D5 PUSH1 0x0 DUP4 ADD DUP5 PUSH2 0x4B1 JUMP JUMPDEST SWAP3 SWAP2 POP POP JUMP JUMPDEST PUSH1 0x0 PUSH1 0x40 DUP3 ADD SWAP1 POP PUSH2 0x4F0 PUSH1 0x0 DUP4 ADD DUP6 PUSH2 0x4B1 JUMP JUMPDEST DUP2 DUP2 SUB PUSH1 0x20 DUP4 ADD MSTORE PUSH2 0x502 DUP2 DUP5 PUSH2 0x478 JUMP JUMPDEST SWAP1 POP SWAP4 SWAP3 POP POP POP JUMP JUMPDEST PUSH1 0x0 PUSH2 0x515 PUSH2 0x526 JUMP JUMPDEST SWAP1 POP PUSH2 0x521 DUP3 DUP3 PUSH2 0x5FB JUMP JUMPDEST SWAP2 SWAP1 POP JUMP JUMPDEST PUSH1 0x0 PUSH1 0x40 MLOAD SWAP1 POP SWAP1 JUMP JUMPDEST PUSH1 0x0 PUSH8 0xFFFFFFFFFFFFFFFF DUP3 GT ISZERO PUSH2 0x54B JUMPI PUSH2 0x54A PUSH2 0x65B JUMP JUMPDEST JUMPDEST PUSH2 0x554 DUP3 PUSH2 0x69E JUMP JUMPDEST SWAP1 POP PUSH1 0x20 DUP2 ADD SWAP1 POP SWAP2 SWAP1 POP JUMP JUMPDEST PUSH1 0x0 DUP2 MLOAD SWAP1 POP SWAP2 SWAP1 POP JUMP JUMPDEST PUSH1 0x0 DUP3 DUP3 MSTORE PUSH1 0x20 DUP3 ADD SWAP1 POP SWAP3 SWAP2 POP POP JUMP JUMPDEST PUSH1 0x0 DUP2 SWAP1 POP SWAP2 SWAP1 POP JUMP JUMPDEST DUP3 DUP2 DUP4 CALLDATACOPY PUSH1 0x0 DUP4 DUP4 ADD MSTORE POP POP POP JUMP JUMPDEST PUSH1 0x0 JUMPDEST DUP4 DUP2 LT ISZERO PUSH2 0x5B4 JUMPI DUP1 DUP3 ADD MLOAD DUP2 DUP5 ADD MSTORE PUSH1 0x20 DUP2 ADD SWAP1 POP PUSH2 0x599 JUMP JUMPDEST DUP4 DUP2 GT ISZERO PUSH2 0x5C3 JUMPI PUSH1 0x0 DUP5 DUP5 ADD MSTORE JUMPDEST POP POP POP POP JUMP JUMPDEST PUSH1 0x0 PUSH1 0x2 DUP3 DIV SWAP1 POP PUSH1 0x1 DUP3 AND DUP1 PUSH2 0x5E1 JUMPI PUSH1 0x7F DUP3 AND SWAP2 POP JUMPDEST PUSH1 0x20 DUP3 LT DUP2 EQ ISZERO PUSH2 0x5F5 JUMPI PUSH2 0x5F4 PUSH2 0x62C JUMP JUMPDEST JUMPDEST POP SWAP2 SWAP1 POP JUMP JUMPDEST PUSH2 0x604 DUP3 PUSH2 0x69E JUMP JUMPDEST DUP2 ADD DUP2 DUP2 LT PUSH8 0xFFFFFFFFFFFFFFFF DUP3 GT OR ISZERO PUSH2 0x623 JUMPI PUSH2 0x622 PUSH2 0x65B JUMP JUMPDEST JUMPDEST DUP1 PUSH1 0x40 MSTORE POP POP POP JUMP JUMPDEST PUSH32 0x4E487B7100000000000000000000000000000000000000000000000000000000 PUSH1 0x0 MSTORE PUSH1 0x22 PUSH1 0x4 MSTORE PUSH1 0x24 PUSH1 0x0 REVERT JUMPDEST PUSH32 0x4E487B7100000000000000000000000000000000000000000000000000000000 PUSH1 0x0 MSTORE PUSH1 0x41 PUSH1 0x4 MSTORE PUSH1 0x24 PUSH1 0x0 REVERT JUMPDEST PUSH1 0x0 DUP1 REVERT JUMPDEST PUSH1 0x0 DUP1 REVERT JUMPDEST PUSH1 0x0 DUP1 REVERT JUMPDEST PUSH1 0x0 DUP1 REVERT JUMPDEST PUSH1 0x0 PUSH1 0x1F NOT PUSH1 0x1F DUP4 ADD AND SWAP1 POP SWAP2 SWAP1 POP JUMP JUMPDEST PUSH2 0x6B8 DUP2 PUSH2 0x57D JUMP JUMPDEST DUP2 EQ PUSH2 0x6C3 JUMPI PUSH1 0x0 DUP1 REVERT JUMPDEST POP JUMP INVALID LOG2 PUSH5 0x6970667358 0x22 SLT KECCAK256 DUP7 SWAP16 0xEA PUSH4 0xAD0AB73A SWAP13 0xEE DUP11 SWAP7 LOG2 0xC8 BALANCE 0xB7 EXTCODESIZE DUP4 GAS 0xBA 0xE2 DUP5 DUP6 0xE2 PUSH24 0x63E4B41DD5F94D64736F6C63430008070033000000000000 "
		},
		"gasEstimates": {
			"creation": {
				"codeDepositCost": "357600",
				"executionCost": "infinite",
				"totalCost": "infinite"
			},
			"external": {
				"addPerson(uint256,string)": "infinite",
				"nameToFavNumber(string)": "infinite",
				"people(uint256)": "infinite",
				"retrieve()": "2415",
				"store(uint256)": "22542"
			}
		},
		"methodIdentifiers": {
			"addPerson(uint256,string)": "bc832d4e",
			"nameToFavNumber(string)": "43ec8f47",
			"people(uint256)": "9e7a13ad",
			"retrieve()": "2e64cec1",
			"store(uint256)": "6057361d"
		}
	},
	"abi": [
		{
			"inputs": [
				{
					"internalType": "uint256",
					"name": "num",
					"type": "uint256"
				},
				{
					"internalType": "string",
					"name": "_name",
					"type": "string"
				}
			],
			"name": "addPerson",
			"outputs": [],
			"stateMutability": "nonpayable",
			"type": "function"
		},
		{
			"inputs": [
				{
					"internalType": "string",
					"name": "",
					"type": "string"
				}
			],
			"name": "nameToFavNumber",
			"outputs": [
				{
					"internalType": "uint256",
					"name": "",
					"type": "uint256"
				}
			],
			"stateMutability": "view",
			"type": "function"
		},
		{
			"inputs": [
				{
					"internalType": "uint256",
					"name": "",
					"type": "uint256"
				}
			],
			"name": "people",
			"outputs": [
				{
					"internalType": "uint256",
					"name": "number",
					"type": "uint256"
				},
				{
					"internalType": "string",
					"name": "name",
					"type": "string"
				}
			],
			"stateMutability": "view",
			"type": "function"
		},
		{
			"inputs": [],
			"name": "retrieve",
			"outputs": [
				{
					"internalType": "uint256",
					"name": "",
					"type": "uint256"
				}
			],
			"stateMutability": "view",
			"type": "function"
		},
		{
			"inputs": [
				{
					"internalType": "uint256",
					"name": "_favNumber",
					"type": "uint256"
				}
			],
			"name": "store",
			"outputs": [],
			"stateMutability": "nonpayable",
			"type": "function"
		}
	]
}